:020000040000fa
:080000000002040000000000f2
:020000040000fa
:100400008f44210080bf230000018800000000000d
:10041000050007000c000700e810020000000000c3
:100420000040da000000fe004440a90080002000e7
:100430000000e0000300320000002000a00188005e
:100440004440a80000000600804521000100200073
:100450001600370062004000e080480091018800eb
:100460009001ba0062004000e080480091018800dd
:100470009002ba0062004000e08048000002eb00f9
:100480006028e10005003a008301e900070033001d
:10049000038009000059eb00040037006128e100e7
:1004a000010032000082eb00050007009101880086
:1004b0001001ba000200e000e6ff3a00000005006b
:1004c000910188008002780062004000e0804800ce
:1004d0003559ba008301e900080032002559ba00f5
:1004e0008301e900050032000400e000f4ff32005f
:1004f00015d9ba008301e900f1ff3a0000000600b7
:10050000839f68000100e00002003d0060001000d1
:10051000e08018000300e00002003d0060011100cf
:10052000e08119005a0107004f00e00002003b0083
:1005300060001000e080180000000600889fbe00e8
:100540008a9fbe008c1f780061010700680133009c
:1005500003866c006450e1002e0032006420e1004c
:10056000330032006150e1002f0032006120e100d1
:100570003100320085855500eb07b00009002000ee
:1005800008042000050037000804440089844c005a
:100590000a0031000603430087834b00000153002b
:1005a00081815b00f8ff33000203be000800a00059
:1005b0000804440089844c00f6ff3900c639dd0088
:1005c0008301730001003200130020008904d10070
:1005d0000884d3000998a300050032000800a70092
:1005e0000300a0008904d1000884d3008b05e80033
:1005f0008904d1000884d3000001eb000281d200fd
:100600004b01070001f0a1000cf0a70001f0a000d1
:10061000400137006420e100420132000801be00c1
:100620000200be00f7ff37006120e1003d0132000b
:100630006000b800f3ff37000000200001f8270039
:10064000f0ff37000001be005f0107000470a70043
:1006500003f0a10003f8a30013003a006509b100fc
:1006600010003200090035006928e1000200350061
:1006700001002800000005000000400081804800c3
:100680008502e900fcff3a0000000600f88f4200f6
:10069000050035008100d1000080d3008502e8000c
:1006a000fcff3a00000006008000eb00000005009f
:1006b000889fbe008a9fbe00010578000100e0000f
:1006c0000400350008003c000000e000200032007b
:1006d0000500370060001000e080180002003b00b9
:1006e00001f02c001a0037000004be006011b800b1
:1006f0006b0920000982cf00020039000882cf0078
:100700000441b000694252000e00320008003b0074
:1007100082817100610164008904d1000884d300e2
:100720008b05e8000442e800f9ff3a0005003700b5
:100730000804440089844c008b05e9000442e90068
:10074000fbff3a00fa0007000af0a70001f0a00042
:100750004f05be004f04be00000006000081eb0004
:100760002e0137000001eb002c013700889fbe00ee
:100770008a9fbe008c1f7800d5000700dc00330084
:1007800003866c006450e100240032006420e10024
:10079000270032006150e100220032006120e100b8
:1007a000210032008b854200eb07b1000134b80014
:1007b000003ab8000804420089844a00013ab800af
:1007c0000030b8008880400009014a00040033006e
:1007d0000000400081804800020149008b05e900cb
:1007e000c909dd0083017000010032001300200000
:1007f000c814de004814dd004709de001200b20014
:10080000c808de0008847000c900070001f0a100dc
:100810000cf0a70001f0a000be0037006120e1004d
:10082000c00032000801be000200be00f7ff370022
:100830006150e100fcff3a00ba00370003f0a2006b
:10084000889fbe008a9fbe008c1f7800a000070012
:10085000a70033006450e1004f0032006420e10043
:100860005200320003826c0007003b000905d000f3
:100870000306d000820f54000c065d000200390010
:100880000200320089017800030678008582550055
:1008900004003d000003fd008103fd008502ea0025
:1008a0008b854200840f720002003b006000100044
:1008b000e08018006011b8000005eb007a28e10024
:1008c0000a00390006007800c75ddd00f707b200b6
:1008d000878075002d003700828171000a01780041
:1008e000610560008180d1000080d3008502e900ad
:1008f000f9ff3b00060440008784480002003b00eb
:1009000060041400e0841c000988a3000700320082
:100910008a81710082817100610164008904d100c3
:100920000884d3008b05e800170037000978a3007e
:1009300013003a000b00e000130034008b05e900bf
:100940000804440089844c000a4474000978a30018
:100950000d003a000b00e000070034008b05e900b1
:100960000804440089844c0001003a000b00200078
:100970000978a300f7ff32000001eb000200370006
:10098000828171000a017800690007000cf0a7005d
:1009900001f0a0005f0037006420e10002003a008f
:1009a000838f6c005f0033000801be000200be00b0
:1009b00058003700f4ff2f00010137000001eb0061
:1009c0001a010700040032000200200003f823008f
:1009d00001f0a70099ff0700000006000001be001b
:1009e000790007000470a70003f0a1006509b100b9
:1009f000160032000d0035006828e10006003500c1
:100a0000f0ff2f00f1ff27000300e00013003b0080
:100a1000010028000000050000004000818048001f
:100a20008502e900fcff3a0008003700f88f420019
:100a300002003c008000eb00000005008100d100b6
:100a40000080d3008502e800fcff3a000300e000cc
:100a500002003b0060001000e0801800000006006b
:100a600014002000d60037000001eb00ef00070063
:100a7000040032000200200003f8230001f0a60069
:100a80006fff07000000060004002000cc003700c4
:100a90006022b800060220000000d0008180d20051
:100aa0000482d2008582d2000000a000020252001f
:100ab00083825a00030031000202420083824a000e
:100ac0000000a1000603e900f3ff3a000000060061
:100ad0000004be003c0007000003be000405be0089
:100ae0000200be0038000700844f750000000600b9
:100af0000200be006450e100050036006420e10001
:100b0000020036000968a30001003a000800be0098
:100b10000160a0004f0678004f05be004f04be00e4
:100b200000000600f0ff2f00f1ff2700f9ff37005b
:100b300081002000618055000b003d000b0020006b
:100b400061fe2f000100e1001d0034008281710070
:100b5000610164008904d1000884d3000000e8002a
:100b6000faff3a0071002000610064000300700089
:100b7000020060000900320061044400e0844c007f
:100b80000988a500050032008b05e8006808e1002f
:100b900002003a008904d1000884d300f20f20003b
:100ba0000258e10005003d00c75ddd00f907b20015
:100bb0008980750008007800000006000bf8270007
:100bc0008b00780000000500c70ade00f107b200c4
:100bd000f50fb20008003200e1cf420002003200ff
:100be0000170a00024000500810f70000100320098
:100bf0000408050044000500810f700002003a005f
:100c0000140005008502e9000000400081c0480092
:100c1000fcff3b000170a00024000500889fbe007f
:100c20008a9fbe008c9fbe00820578000004be0033
:100c3000e5ff07000800be006420e100070039005e
:100c400002003a00f1ff2700f0ff2f000160a00032
:100c50001202200032a28800550037006120e10016
:100c600003003a000b00a70001f8230050003700f2
:100c700001f0a100020021009364240078ff070026
:100c80000800be0004003500b2fd2000930c2400d3
:100c90008d0007000004be000005eb000b00a6005d
:100ca0004f0dde0001f0a1000004be0032982f00bd
:100cb00023ea2300adfe07000001eb0003f0230050
:100cc0000b00a70003f82300ddfe070043ff070029
:100cd0000000a7000a00a20075fe07000b00e0005c
:100ce000030032000200200003f02300d3fe0700bf
:100cf00001f0a2000006be000200200093042400c0
:100d00009afe07000801be00cdfe0700809fbe00ce
:100d10000c00be0022a22a00d3a7230093fe0700e6
:100d20004f01be00c6fe07000004be0001f0a10096
:100d3000020020000398230049ff07000800be00be
:100d4000190035000001be0088fe07000006be0045
:100d5000b2c52900e362230084fe070022222b0093
:100d6000f3942b00b6fe07000c01be007ffe0700c7
:100d7000e273280083c02300b1fe07000c01be000f
:100d80007afe070042aa2a00a3e22b00acfe07006d
:100d90000c01be0075fe07000801be0073fe0700cf
:100da0000801be00a6fe07000a00a70001f0a2008d
:100db0004f06be004f05be004f04be0000000600f7
:100dc000889fbe008a9fbe00841f780040ff0700f6
:100dd0004f00780011003300f0ff2f00838f6c006c
:100de00006003b00040565000a00a7000800370064
:100df00009f0a6001000200008003700820f540000
:100e0000838f5c00030039001000200001003e00c9
:100e10000000200009f0a7000000ea004f05be0016
:100e20004f04be000000e00000000600889fbe00e6
:100e30008a9fbe000003be0063ff0700850578009f
:100e400082815200020020006220e10004003a008a
:100e5000f307b100040035007718e1000400350005
:100e60000600be00140037006000b8000f00370015
:100e7000f50f2000faff2f008502d1000a85d3006c
:100e80008301e900fcff3b008184620000046500ef
:100e9000890f7400f2ff32008582ea000a85ea00b9
:100ea000818462000004650021ff070007f0a700ad
:100eb00001f0a0000081eb000200e0004f05be0041
:100ec0004f04be00000006000400200000003700b0
:100ed000889fbe008a9fbe008c1f78004f26dd00d1
:100ee000fbfe070002ff33006120e10043003200f7
:100ef0006250e10041003e003e0039006420e10004
:100f00003c003200058255000f003b000402e8005f
:100f100038003a00800f5300818f5b0035003400a9
:100f20000800be0003f0a10001f0a60003f0a0003d
:100f30000cf0a70042fe0700f6fe37000603430050
:100f400087834b000c4646000005530081855b00fb
:100f5000020033000a03be000c00a0000402e900f6
:100f6000f6ff3b00850578000602430087824b00b0
:100f700004003a006000b80009f0a70001f0a000ea
:100f8000e4fe37000002520081825a000704e000ac
:100f9000040033000603430087834b008b05e90000
:100fa000faff3700090578000604be000203be0000
:100fb0006011b800defe0700e00f5200e08f5a001b
:100fc0000700350002003c000c08a30004003200ba
:100fd0000601be0003f0a0000cf0a70018fe0700f9
:100fe0000a85680001f0a1000af0a70001f0a00046
:100ff000c8fe37000800be00c6fe37001002200001
:101000000cf0a60030a28800c6fe3700f487470027
:10101000889fbe008a9fbe008c9fbe008e1f7800f6
:10102000d1b79f0002047800110020008008dd0085
:1010300022002000110009008200d800000578007d
:101040000000200001f823008f000700dfb09700a8
:10105000800878000000eb00900098006487400052
:101060006150b90092fd07000001be00b0fd2000f4
:101070009104240031fd07000006be00b7fd070003
:10108000e0b79f00f1b79f000800e0004100320088
:101090000c00be00b3fd0700b0b79f00c1b79f00b2
:1010a00090b79f00a1b79f000a80e900320033008b
:1010b0006fb69700ffb697008000eb0081b79f00e6
:1010c0000a05e9008abf9f000c00be006e00070001
:1010d000000f78001fb09700afb097006a000700bc
:1010e00010079800640747006fb19700ffb19700a1
:1010f0000c00be009dfd07000004be001fb197005c
:10110000afb197003fb09700cfb0970097fd0700b1
:101110000001be000800be00c8fd07000005be00bb
:101120000c01be003fb09700cfb097008ffd0700c5
:101130000004be006fb19700ffb197001fb0970089
:10114000afb0970089fd07000001be000800be0097
:10115000bbfd070090b79f00a1b79f000fb097009d
:101160000000e80080b79f000a06be008fb8970015
:10117000810f5000d4ff3a005fb097004f0778000e
:101180004f06be004f05be004f04be004f01b10028
:10119000000006000c00be0072fd070001f0a20076
:1011a000b0b79f00c1b79f0090b79f00a1b79f0045
:1011b000bdff3700809fbe00831f7800841f78002a
:1011c000230020000018dd00700a0200000000006b
:1011d0004f01be004f00be00801f78007c0a020055
:1011e00000000000800078004f007800f40a020040
:1011f0000000000000000600821f7800849fbe00ef
:101200008a1f78004400f800040f200024028800a0
:10121000010578000601c3000080e9000080080095
:1012200003000000000000000505f0000401f100cb
:101230003200cd000505f0001001f1003200cd00b4
:101240004400f9004f0578004f02be004f007800bf
:1012500000000600b10278000009eb000002e9007e
:1012600007003400b10178000328e10002003c00cf
:1012700083027800040950000402e900f9ff3c00f1
:1012800005007800000006000c00fa00889fbe00f0
:101290008a9fbe008c9fbe000004be00020020009a
:1012a0000370240031fd0700c0b79f00d1b79f0035
:1012b0006011b8000800be00befd07000000e0009d
:1012c0003e0035004fb09700dfb09700bbfd070030
:1012d000c2fd07000006be00f5fc07000005be00c9
:1012e0000200200003f0230020fd07000004be00e0
:1012f000b2fd07000001be000800be004ffd070060
:101300000001be004efd0700b4fd0700e0b79f00de
:10131000f1b79f000a01be004fb09700dfb0970001
:1013200046fd07000004be000200200003f0230079
:10133000a0fd07000000e0001100340002002000c2
:1013400003f823000a00be003dfd0700a3fd0700cf
:101350000006be00f2ff2700f0ff2700800f5600b6
:10136000e08f5e0057003400020078004f06be0098
:101370004f05be004f04be000080fa0000000600ca
:101380000200200003f023000800be00b4fd0700a7
:101390000000e000efff3a006fb097000000e000af
:1013a000e6ff3a00f2ff2700f0ff2700800f56000b
:1013b000e08f5e00ecff3c00420037004fb097002a
:1013c000dfb09700a8fd070084fd07000006be00ff
:1013d000b7fc07000005be000001be004fb097003b
:1013e000dfb09700a8fd07000000e0000800320011
:1013f0000200200003f823000a00be000ffd0700d2
:1014000076fd07000006be00a9fc07000005be002f
:101410000200200003f023000a00be00d3fc0700f6
:101420000004be0065fd07000001be000800be000c
:1014300002fd07000001be0001fd070067fd070077
:1014400080bf9f0091bf9f000a01be004fb0970070
:10145000dfb09700f9fc07000004be000200200086
:1014600003f0230053fd07000000e00009003c00ea
:101470000200200003f023000800be0078fd0700f2
:101480000000e00009003a000fb897000000e000fb
:10149000060032000200200003f823000a00be000c
:1014a000e7fc07004dfd07000006be000200280013
:1014b00000002800f1ff2f00800f5600818f5e0092
:1014c000a9ff35000c0078004f06be004f05be0096
:1014d0004f04be000080fa0000000600a8ff37009d
:1014e000810178000000e90000800900b21878004e
:1014f0000300780000000600889fbe008a9fbe009f
:101500008c9fbe004400f800070f200027028800cf
:101510003400f80007f02f000338e1000400320027
:10152000270280004700b30027028800a30188003b
:10153000811f780019002000804cdd00130020007e
:1015400002047800800678008904d100424edd0054
:10155000010578000302e90004800800170000007c
:101560008a0546004218dd000902e90004800800ef
:1015700010000000000000004620c3003b025200a3
:10158000df35c100080440001381c200ab82520065
:10159000264dc5003e85c400bb00cd00bb80cd00fc
:1015a0003a00ca002a80ca000700c9000580c900a5
:1015b000ba00cd00ba80cd000a05460002047800ca
:1015c0008301d0008d06e900dfff3c004f0078006a
:1015d0003400f9004400f9004f06be004f05be007c
:1015e0004f04be00000006004600f8005000f8005e
:1015f0000220200032028800020028001300200090
:101600008019dd00028171008202880001007800eb
:101610000101780026002000470020008301e90036
:1016200003800800070000000110e10004003400fe
:101630001102be0092087800e2307b000489be00ef
:1016400087804000121978005000f9004600f90028
:10165000000006000000fa0090022000303a8800e6
:1016600044c7bf00f043b20044e7b7004174200014
:101670009140780000ceb30000c0600044e7b7009e
:101680000000eb00403a8800120020008107200093
:10169000a009200033742000814978008049780037
:1016a00082497800120020006104200070052000ab
:1016b00023742000814978008049780082497800ad
:1016c00043c7bf000047b200f04f5000fcff3a0094
:1016d00042c7bf000042b2000004e000fcff32003d
:1016e000db0007000080fa00000006000400fa009a
:1016f000000f78001e007800100798001e00900070
:10170000e20f5000110032001e009000e30f500065
:101710001b0032001e009000e10f5000010032005b
:1017200023003700a0a2840090a1880090a180002f
:1017300061406000c700dd00d1c2bf000074a1009d
:1017400001407000d1e2b70019003700a0a2840068
:10175000a0a18800a0a180006140600061406000fd
:101760004501dd00112d200091407800f0cdb3003f
:1017700000c0600002407000d1e2b7000c003700ea
:10178000a0a28400b0a18800b0a1800061406000e8
:10179000614060004601dd00112d2000914078007d
:1017a000f0cbb30000c0600002407000d1e2b7008f
:1017b0000080fa00000006000400fa00000f780024
:1017c0001e007800100798001e009000e20f5000e5
:1017d000110032001e009000e30f50001b00320089
:1017e0001e009000e10f500001003200230037007e
:1017f000b0a2840090a1880090a1800061406000a8
:10180000c700dd00d1c2bf000074a100014070001c
:10181000d1e2b70019003700b0a28400a0a188006f
:10182000a0a1800061406000614060004501dd00d2
:10183000112d200091407800f0cdb30000c0600071
:1018400002407000d1e2b7000c003700b0a2840063
:10185000b0a18800b0a180006140600061406000dc
:101860004601dd00112d200091407800f0cbb3003f
:1018700000c0600002407000d1e2b7000080fa00b2
:10188000000006000400fa00000f78001e00780037
:10189000100798001e009000e20f50001800320060
:1018a0001e009000e30f5000290032001e0090003f
:1018b000e10f5000010032003800370091a1800094
:1018c000b0a28400808f500003003a00a0a28400e0
:1018d00090a1880002003700b0a2840090a1880087
:1018e00090a1800061406000c700dd00d1c2bf0050
:1018f0000074a10001407000d1e2b700270037005a
:10190000a1a18000b0a28400808f500003003a00a3
:10191000a0a28400a0a1880002003700b0a2840029
:10192000a0a18800a0a1800061406000614060002b
:101930004501dd00112d200091407800f0cdb3006d
:1019400000c0600002407000d1e2b7001300370011
:10195000b1a18000b0a28400808f500003003a0043
:10196000a0a28400b0a1880002003700b0a28400c9
:10197000b0a18800b0a180006140600061406000bb
:101980004601dd00112d200091407800f0cbb3001e
:1019900000c0600002407000d1e2b7000080fa0091
:1019a000000006000400fa00000f78001e00780016
:1019b000100798001e009000e20f50000e00320049
:1019c0001e009000e30f5000120032001e00900035
:1019d000e10f500001003200150037001000200018
:1019e00042ff07002000200073ff070030002000a6
:1019f00071ff070014003700100020006eff070081
:101a00002000200039ff0700300020006aff070097
:101a10000d0037001000200067ff070020002000a5
:101a200065ff07003000200030ff07000600370088
:101a30001000200060ff0700200020005eff07006c
:101a4000300020005cff07000080fa000000060064
:101a50000000fa00cda2a900cde2a900cdc2a900e4
:101a6000d1a2a800d1e2a800d1c2a800d302a80048
:101a7000d322a800e402a900e422a900e802a900f8
:101a8000e822a9000000eb00c0a188000000eb00e4
:101a9000d0a188000080fa00000006000200fa00d1
:101aa000d5c2bf00614060000004e00009003a00b8
:101ab000c0a180000000e800c0a18800c0a1800093
:101ac000ec0f500007003a0010002000000f7800d3
:101ad000040037000000eb00c0a188000000eb000c
:101ae000000f78001e0078000080fa000000060059
:101af0000200fa00d5c2bf00624060000004e000ae
:101b000009003a00d0a180000000e800d0a18800c0
:101b1000d0a18000ec0f500007003a001000200018
:101b2000000f7800040037000000eb00d0a188000f
:101b30000000eb00000f78001e0078000080fa0023
:101b4000000006000a00fa0010079800210798001c
:101b500032079800430798000000eb00000f780060
:101b60001e0037001e007800000040008000780052
:101b70004e009000808140001e0078000000400070
:101b8000800078003e009000008240001e00780037
:101b900000004000800078003e009000008040007f
:101ba000100078006300b900000178001e00780082
:101bb00000004000800078002e009000008040006f
:101bc00010007800000041004280de00000a78002a
:101bd00014007800800978001e0fe8001e009000b5
:101be0009e0f1000dfff35000080fa0000000600a5
:101bf0000400fa00000f7800110798001e0078001a
:101c000000a288001e0078009e0090000108780065
:101c10001e00900001102000808040001e0078000f
:101c20001100980010012200601c88007000200044
:101c3000701c88001e00780010007800800078007a
:101c40000000240000805000801c88000018200044
:101c5000a01c880070002000b01c88000000eb0071
:101c6000800888000000eb00300888000000eb00ce
:101c7000600888000080fa00000006000200fa00f8
:101c8000000f78009e0078000000eb00a000980094
:101c90009e0078000000eb00e00098009e007800b5
:101ca00000082000c00098009e0078000008200076
:101cb000d00098009e0078000000eb00b000980073
:101cc00085c0a90095c0a8008de3a80000272000ca
:101cd0006008880080132000000c8800801320001a
:101ce000100c880060002000200c880011e1a80082
:101cf0000080fa00000006000200fa00000f7800e1
:101d000011e1a90095c0a9008de3a9000080fa00a7
:101d1000000006001000fa004007980051079800e4
:101d2000620798004e009000200090000000e00044
:101d3000040032004e0090001000780070079800f8
:101d4000030037004e0090001000900070079800cc
:101d50007e00900030079800ee0090000008200000
:101d6000808f5000020034000008200060079800b7
:101d70000000eb00200798002c0037002e00900098
:101d800000004000800078005e009000008040006d
:101d900090007800000028000080400010079800a4
:101da0001e0090006101b800002720000013b80059
:101db0006010b900070278000002420000272000ee
:101dc0000098b9000002420084037800f2ff2f005f
:101dd000030020000600be00c9f90700000f7800cc
:101de000002720009e0f100002003600f026200081
:101df000000f78001e00e00002003a0010002000f2
:101e0000000f78002e009000000040008000780055
:101e10003e009000808040001e007800800878001e
:101e20002e0090000000e80020079800ae0090000f
:101e30006e009000808f5000d0ff35004e00900063
:101e4000ee009000510098000400fc00ce009000cd
:101e500010002000b00098000000fc000080fa0094
:101e6000000006000200fa00000f78001e00780053
:101e7000300090000080fa0000000600809fbe0045
:101e80000000fa0085c0a90001a280006100900056
:101e90000000e800e000980000a28000e000900050
:101ea00000a2800040009000808f500021003a0086
:101eb00001a280000000eb00e000980001a2800079
:101ec00000a28000200090000000a200a000980066
:101ed00001a280000000eb00b000980000a280008a
:101ee00020009000e10f500007003a0000a280009f
:101ef0001000900080007800000024000080500056
:101f0000801c88000600370000a2800010007800c6
:101f1000800078000000240000805000801c8800b1
:101f200000a2800001a28000d10090004100980032
:101f300003003700801c80000080e800801c8800bf
:101f40008de3a8000080fa004f00be0000400600ac
:101f50000400fa00000f7800110798001e007800b6
:101f600010a288001e0078009e00900001087800f2
:101f70001e0090000008b000800078001e0078006d
:101f80001100980081c3a90081a3a9008183a90041
:101f90008163a9000138200091407800f0ccb300a3
:101fa00000c0600080e3b700013820009140780055
:101fb000c0cfb30000c060000014a00080e3b700f1
:101fc00083e3a900213820009140780000c8b300c5
:101fd00000c06000d040b30082e3b7001e0078006c
:101fe000100078008000780000002400008050007d
:101ff000201c88001e0078001000900080007800ef
:102000000000240000805000301c880000302000b8
:10201000401c8800f0072000501c880040742000fd
:10202000001988000000eb00101988000001200052
:10203000201988000000eb00401988002c03a9003b
:102040000000eb00801988000000eb0050088800b9
:1020500070382100700888000080fa000000060037
:102060000200fa00000f78009e0078000000eb00ec
:10207000a00098009e00780010002000b00098009a
:102080008480a9009480a80081e3a80021e3a8002f
:1020900013e1a8000080fa00000006000200fa0028
:1020a000000f78009480a90081e3a90021e3a90032
:1020b00013e1a9000080fa00000006000c00fa00fd
:1020c0002007980031079800420798002e009000e2
:1020d000200090000000e000040032002e0090007c
:1020e0001000780050079800030037002e00900081
:1020f00010009000500798005e00900010079800b4
:10210000ce00900000082000808f500002003400b4
:1021100000082000400798000000eb00000f780046
:102120000d0037001e00780000004000800078009d
:102130003e009000008140001e007800000040003a
:10214000800078001e0090000080400010007800a1
:10215000000978001e0fe8004e0090009e0f10004e
:10216000f0ff35000400fc00ae00900010002000dd
:10217000b00098000000fc000080fa00000006009b
:102180000200fa00000f78001e0078003000900076
:102190000080fa0000000600809fbe000000fa00e8
:1021a0008480a90011a2800010a28000200090006d
:1021b0000000a200a000980011a280000000eb0027
:1021c000b00098000080fa004f00be0000400600fa
:1021d0000200fa001ffd0700e0a18000016024005a
:1021e0005bff0700f0a180000140240080fe070093
:1021f000e0a180009aff0700f0a180009ffe070089
:102200000000370010a080000000e0000a003a0043
:102210000000eb0010a088000000eb006800070041
:1022200010a088000001eb008000eb000000eb0034
:102230007b000700f3ff370010a08000e10f500083
:1022400058003a00e0a18000cdff07000000e00048
:10225000fcff3a00e0a180000210200001e0200015
:1022600096ff070001c0200000e0200002010700e7
:102270000200240001e020000010200005010700fa
:10228000000024002c01070020a0880020a080006e
:10229000000f78001e007800e20f50001b00320093
:1022a0001e007800e20f500007003c001e0078007e
:1022b0000000e0000b0032001e007800e10f50002b
:1022c0000d003200200037001e007800e30f5000a0
:1022d000130032001e007800e40f50001500320099
:1022e00019003700120020008000eb000000eb0016
:1022f0004b000700170037001200200011002000db
:102300000000eb0046000700120037000001eb0060
:10231000110020000000eb00410007000d00370015
:102320000001eb0011002000100020003c0007001d
:10233000080037000001eb008000eb0010002000d7
:102340003700070003003700200020001c000700b2
:1023500010a08800f0a18000c2fe07000000e0008d
:10236000fcff3a00f0a180000210200001202100b3
:1023700068fe0700d5c2bf00624060000004e000b4
:10238000a0ff3a00d5c2bf00614060000004e00039
:102390009cff320020a080000000e80020a0880000
:1023a00098ff370010a08000e20f500095ff3a0020
:1023b000200020000200070010a0880091ff3700d5
:1023c0000400fa00000f78001e0078001007980043
:1023d0001e0090000000e000040032001e0090008b
:1023e000e10f500005003200070037000000eb004d
:1023f000e0a088002a000700060037001000200037
:10240000e0a088000300370020002000e0a0880042
:1024100065000700e0a080000080fa0000000600d0
:102420000600fa00000f78001107980022079800b4
:10243000100020009e0f100002003a00d1e2a90017
:10244000030037001e00e00001003a00d1e2a800be
:102450001e009000e10f500002003a00d1a2a90036
:10246000040037001e0090000000e00001003a0068
:10247000d1a2a8002e009000e10f500002003a0007
:10248000d1c2a900040037002e0090000000e00037
:1024900001003a00d1c2a8000080fa000000060046
:1024a0000400fa000068290081c12400f0a088001f
:1024b00001a18800f2a0800003a18000000020009c
:1024c00001f823001df8070010a1880021a1880051
:1024d00010a1800021a18000d00007000000eb00c7
:1024e000000f78002b003700d5c2bf0061406000ac
:1024f0000004e00007003a00d5c2bf00624060005f
:102500000004e0000300320010002000e0a088007a
:10251000200037001e007800100798001e00900071
:10252000e10f50000c0032001e009000e20f50003e
:102530000e0032001e0090000000e000010032009a
:1025400010003700d1e2a900d1a2a800d1c2a80092
:102550001e0fe8000c003700d1e2a800d1a2a900ac
:10256000d1c2a8001e0fe80007003700d1e2a80082
:10257000d1a2a800d1c2a9000000eb00000f780092
:102580000100370008000700a099290091e9230005
:10259000a9000700e0a080000000e000d2ff3200a8
:1025a0000080fa00000006000200fa00006829001e
:1025b00081c12400f0a0880001a18800f2a0800061
:1025c00003a180000000200001f82300dbf70700d2
:1025d00010a1880021a1880010a1800021a1800005
:1025e0008e0007000000eb00000f7800d5c2bf008e
:1025f000614060000004e00009003a00d5c2bf005d
:10260000624060000004e00005003a000000eb00ba
:10261000000f78000000eb00e0a0880014003700f5
:102620001e00e00006003a00d1e2a900d1a2a900f4
:10263000d1c2a90010002000000f78000800370068
:10264000100020009e0f100005003a00d1e2a80003
:10265000d1a2a800d1c2a8000000eb00000f7800b2
:10266000a099290091e9230073000700dfff3700dc
:102670000080fa00000006000400fa00000f780055
:10268000110798001e007800100798000080fa00db
:10269000000006000800fa001007980021079800c3
:1026a000320798000000eb00000f7800130037009d
:1026b0009e0178001e007800000040008000780035
:1026c0002e009000008040001001780001c023001f
:1026d0004218dd0001004000020878001e0078006a
:1026e00001c023004200dd00010040008080e800be
:1026f0000000eb00800878001e0fe8001e0090002c
:102700009e0f1000eaff35000001eb000180200061
:10271000800020003dfa070004f02f000380200015
:1027200002c02300be00900080002000a1fa070034
:102730000080fa00000006000602fa0020079a0056
:102740000000eb00100798000000eb00000f78007d
:1027500064014700ae00920000082000a6fa0700be
:10276000e40047004244210000082000b9fa0700b5
:1027700020a280007f00b900100798009e00900002
:1027800000322000808f500003003c000000eb006e
:10279000000f78001e0037009e00900000642000ab
:1027a000808f500003003c0010002000000f7800d4
:1027b000170037009e00900000962000808f500088
:1027c00003003c0020002000000f780010003700bc
:1027d0009e00900000c82000808f500003003c0045
:1027e00030002000000f7800090037009e009000a4
:1027f00000fa2000808f500003003c0040002000c1
:10280000000f78000200370050002000000f780011
:102810001e0078000080fa00000006000400fa00a4
:10282000008fbe001e00be0050a1880061a188007c
:102830000080fa00000006000400fa00008fbe00cd
:1028400052a1800063a180001e00be003bf707007c
:102850007cf7070070a1880081a1880070a180002a
:1028600081a18000020007000080fa00000006003d
:10287000f03fb1000180b10006003500ee03090011
:1028800000000000403fb1000180b100fbff3d00af
:102890001000b000203fb0000200350000800900a9
:0828a00000000000000006002a
:020000040000fa
:0200000401f009
:04000800ffff0000f6
:020000040000fa
:0200000401f009
:04000c00f8ff0000f9
:020000040000fa
:0200000401f009
:040010007bff000072
:020000040000fa
:0200000401f009
:040014007fff00006a
:020000040000fa
:10000800c0140000c0140000c0140000c014000098
:10001800c0140000c0140000c0140000c014000088
:10002800c0140000c0140000c0140000c014000078
:10003800cc100000c0140000c0140000c014000060
:10004800c0140000c0140000c0140000c014000058
:10005800c0140000c01400003e0f0000c0140000cf
:10006800c0140000c0140000c0140000c014000038
:10007800c0140000c0140000c0140000c014000028
:10008800c0140000c0140000c0140000c014000018
:10009800c0140000c0140000c0140000c014000008
:1000a800c0140000c0140000c0140000c0140000f8
:1000b800c0140000c0140000c0140000c0140000e8
:1000c800c0140000c0140000c0140000c0140000d8
:1000d800c0140000c0140000c0140000c0140000c8
:1000e800c0140000c0140000c0140000c0140000b8
:1000f800c0140000c0140000c0140000c0140000a8
:10010800c0140000c0140000c0140000c014000097
:10011800c0140000c0140000c0140000c014000087
:10012800c0140000c0140000c0140000c014000077
:10013800c0140000c0140000c0140000c014000067
:10014800c0140000c0140000c0140000c014000057
:10015800c0140000c0140000c0140000c014000047
:10016800c0140000c0140000c0140000c014000037
:10017800c0140000c0140000c0140000c014000027
:10018800c0140000c0140000c0140000c014000017
:10019800c0140000c0140000c0140000c014000007
:1001a800c0140000c0140000c0140000c0140000f7
:1001b800c0140000c0140000c0140000c0140000e7
:1001c800c0140000c0140000c0140000c0140000d7
:1001d800c0140000c0140000c0140000c0140000c7
:1001e800c0140000c0140000c0140000c0140000b7
:0801f800c0140000c014000057
:020000040000fa
:10020800c0140000c0140000c0140000c014000096
:10021800c0140000c0140000c0140000c014000086
:10022800c0140000c0140000c0140000c014000076
:10023800cc100000c0140000c0140000c01400005e
:10024800c0140000c0140000c0140000c014000056
:10025800c0140000c01400003e0f0000c0140000cd
:10026800c0140000c0140000c0140000c014000036
:10027800c0140000c0140000c0140000c014000026
:10028800c0140000c0140000c0140000c014000016
:10029800c0140000c0140000c0140000c014000006
:1002a800c0140000c0140000c0140000c0140000f6
:1002b800c0140000c0140000c0140000c0140000e6
:1002c800c0140000c0140000c0140000c0140000d6
:1002d800c0140000c0140000c0140000c0140000c6
:1002e800c0140000c0140000c0140000c0140000b6
:1002f800c0140000c0140000c0140000c0140000a6
:10030800c0140000c0140000c0140000c014000095
:10031800c0140000c0140000c0140000c014000085
:10032800c0140000c0140000c0140000c014000075
:10033800c0140000c0140000c0140000c014000065
:10034800c0140000c0140000c0140000c014000055
:10035800c0140000c0140000c0140000c014000045
:10036800c0140000c0140000c0140000c014000035
:10037800c0140000c0140000c0140000c014000025
:10038800c0140000c0140000c0140000c014000015
:10039800c0140000c0140000c0140000c014000005
:1003a800c0140000c0140000c0140000c0140000f5
:1003b800c0140000c0140000c0140000c0140000e5
:1003c800c0140000c0140000c0140000c0140000d5
:1003d800c0140000c0140000c0140000c0140000c5
:1003e800c0140000c0140000c0140000c0140000b5
:0803f800c0140000c014000055
:020000040000fa
:0828a800000000000100000027
:020000040000fa
:1028b0003214000006000000000000003814000080
:1028c00004000000000000004014000002000000ae
:1028d00000000000421400000200000000000000a0
:1028e0003c140000040000000200000006140e006a
:1028f000140000000046000000020000000000007c
:10290000004400000002000000000000000e000073
:102910001c06000000000000000c00000002000087
:102920000000000000400000000400000000000063
:102930001c1400000e000000000000004414000001
:10294000020000000200000000000000000800007b
:102950000004000000000000003c00000004000033
:10296000000000002a140000080000000000000021
:1029700046140000020000000000000000000000fb
:020000040000fa
:042980000000fe0055
:00000001FF
