:020000040000fa
:080000000002040000000000f2
:020000040000fa
:10040000af422100803f240000018800000000006e
:10041000050007000c0007007c0802000000000037
:100420000040da000000fe004440a90080002000e7
:100430000000e0000300320000002000a00188005e
:100440004440a80000000600608c2000010020004d
:100450001600370062004000e080480091018800eb
:100460009001ba0062004000e080480091018800dd
:100470009002ba0062004000e08048000002eb00f9
:100480006028e10005003a008301e900070033001d
:10049000038009000059eb00040037006128e100e7
:1004a000010032000082eb00050007009101880086
:1004b0001001ba000200e000e6ff3a00000005006b
:1004c000910188008002780062004000e0804800ce
:1004d0003559ba008301e900080032002559ba00f5
:1004e0008301e900050032000400e000f4ff32005f
:1004f00015d9ba008301e900f1ff3a0000000600b7
:10050000839f68000100e00002003d0060001000d1
:10051000e08018000300e00002003d0060011100cf
:10052000e0811900050007004f00e00002003b00d9
:1005300060001000e0801800000006006022b80093
:10054000060220000000d0008180d2000482d20088
:100550008582d2000000a0000202520083825a006d
:10056000030031000202420083824a000000a10021
:100570000603e900f3ff3a00000006000000fa005d
:1005800090022000303a880044c7bf00f043b20018
:1005900044e7b700417420009140780000ceb300da
:1005a00000c0600044e7b7000000eb00403a88005c
:1005b0001200200081072000a009200033742000d1
:1005c0008149780080497800824978001200200033
:1005d0006104200070052000237420008149780008
:1005e000804978008249780043c7bf000047b200c5
:1005f000f04f5000fcff3a0042c7bf000042b2007b
:100600000004e000fcff3200db0007000080fa007d
:10061000000006000400fa00000f78001e007800b9
:10062000100798001e009000e20f500011003200e9
:100630001e009000e30f50001b0032001e009000cf
:10064000e10f500001003200230037001046840003
:10065000c0a08800c0a0800061406000c700dd002d
:10066000d1c2bf000074a10001407000d1e2b70008
:100670001900370010468400d0a08800d0a0800068
:1006800061406000614060004501dd00112d2000e7
:1006900091407800f0cdb30000c0600002407000cf
:1006a000d1e2b7000c00370010468400e0a08800bb
:1006b000e0a0800061406000614060004601dd0014
:1006c000112d200091407800f0cbb30000c06000f5
:1006d00002407000d1e2b7000080fa00000006007e
:1006e0000400fa00000f78001e0078001007980040
:1006f0001e009000e20f5000110032001e0090001a
:10070000e30f50001b0032001e009000e10f50006c
:10071000010032002300370020468400c0a088007a
:10072000c0a0800061406000c700dd00d1c2bf00f2
:100730000074a10001407000d1e2b7001900370039
:1007400020468400d0a08800d0a0800061406000d6
:10075000614060004501dd00112d200091407800ce
:10076000f0cdb30000c0600002407000d1e2b700dd
:100770000c00370020468400e0a08800e0a0800044
:1007800061406000614060004601dd00112d2000e5
:1007900091407800f0cbb30000c0600002407000d0
:1007a000d1e2b7000080fa00000006000400fa0061
:1007b000000f78001e007800100798001e009000bf
:1007c000e20f5000180032001e009000e30f5000ae
:1007d000290032001e009000e10f5000010032009d
:1007e00038003700c1a0800020468400808f500070
:1007f00003003a0010468400c0a0880002003700c1
:1008000020468400c0a08800c0a080006140600035
:10081000c700dd00d1c2bf000074a100014070001c
:10082000d1e2b70027003700d1a080002046840025
:10083000808f500003003a0010468400d0a088004a
:100840000200370020468400d0a08800d0a080009d
:1008500061406000614060004501dd00112d200015
:1008600091407800f0cdb30000c0600002407000fd
:10087000d1e2b70013003700e1a0800020468400d9
:10088000808f500003003a0010468400e0a08800ea
:100890000200370020468400e0a08800e0a080002d
:1008a00061406000614060004601dd00112d2000c4
:1008b00091407800f0cbb30000c0600002407000af
:1008c000d1e2b7000080fa00000006000400fa0040
:1008d000000f78001e007800100798001e0090009e
:1008e000e20f50000e0032001e009000e30f500097
:1008f000120032001e009000e10f50000100320093
:10090000150037001000200042ff070020002000e3
:1009100073ff07003000200071ff0700140037004c
:10092000100020006eff07002000200039ff0700a4
:10093000300020006aff07000d0037001000200083
:1009400067ff07002000200065ff0700300020003f
:1009500030ff0700060037001000200060ff07008e
:10096000200020005eff0700300020005cff070031
:100970000080fa00000006000000fa00cda2a900e5
:10098000cde2a900cdc2a900d1a2a800d1e2a80061
:10099000d1c2a800d302a800d322a800e402a90073
:1009a000e422a900e802a900e822a9000000eb0067
:1009b000f0a088000000eb0000a188000080fa0091
:1009c000000006000200fa00d5c2bf0061406000ce
:1009d0000004e00009003a00f0a080000000e800f8
:1009e000f0a08800f0a08000ec0f500007003a0053
:1009f00010002000000f7800040037000000eb001a
:100a0000f0a088000000eb00000f78001e007800c6
:100a10000080fa00000006000200fa00d5c2bf0004
:100a2000624060000004e00009003a0000a180007c
:100a30000000e80000a1880000a18000ec0f500039
:100a400007003a0010002000000f78000400370073
:100a50000000eb0000a188000000eb00000f780010
:100a60001e0078000080fa00000006000a00fa006c
:100a70001007980021079800320798004307980054
:100a80000000eb00000f78001e0037001e00780009
:100a900000004000800078004e00900080814000ff
:100aa0001e00780000004000800078003e009000aa
:100ab000008240001e0078000000400080007800a6
:100ac0003e00900000804000100078006300b900f4
:100ad000000178001e0078000000400080007800cf
:100ae0002e009000008040001000780000004100bf
:100af0004280de00000a7800140078008009780047
:100b00001e0fe8001e0090009e0f1000dfff350052
:100b10000080fa00000006000400fa00000f7800d0
:100b2000110798001e00780030a188001e00780090
:100b30009e009000010878001e0090000110200027
:100b4000808040001e0078001100980010012200f3
:100b5000601c880070002000701c88001e00780057
:100b60001000780080007800000024000080500011
:100b7000801c880000182000a01c88007000200045
:100b8000b01c88000000eb00800888000000eb002b
:100b9000300888000000eb00600888000080fa0040
:100ba000000006000200fa00000f78009e007800a6
:100bb0000000eb00a00098009e0078000000eb0011
:100bc000e00098009e00780000082000c000980017
:100bd0009e00780000082000d00098009e00780059
:100be0000000eb00b000980085c0a90095c0a800e7
:100bf0008de3a800002720006008880080132000f3
:100c0000000c880080132000100c88006000200079
:100c1000200c880011e1a8000080fa000000060006
:100c20000200fa00000f780011e1a90095c0a900a8
:100c30008de3a9000080fa00000006001000fa0011
:100c40004007980051079800620798004e009000f6
:100c5000200090000000e000040032004e009000f0
:100c60001000780070079800030037004e009000d5
:100c700010009000700798007e00900030079800e8
:100c8000ee00900000082000808f50000200340029
:100c900000082000600798000000eb002007980083
:100ca0002c0037002e0090000000400080007800eb
:100cb0005e00900000804000900078000000280056
:100cc00000804000100798001e0090006101b800ed
:100cd000002720000013b8006010b9000702780058
:100ce00000024200002720000098b90000024200e4
:100cf00084037800f2ff2f00030020000600be00ee
:100d0000fffd0700000f7800002720009e0f100055
:100d100002003600f0262000000f78001e00e000e0
:100d200002003a0010002000000f78002e00900012
:100d300000004000800078003e009000808040006d
:100d40001e007800800878002e0090000000e80067
:100d500020079800ae0090006e009000808f500039
:100d6000d0ff35004e009000ee009000510098003a
:100d70000400fc00ce00900010002000b00098009d
:100d80000000fc000080fa00000006000200fa00eb
:100d9000000f78001e007800300090000080fa00fc
:100da00000000600809fbe000000fa0085c0a90078
:100db00031a18000610090000000e800e000980090
:100dc00030a18000e000900030a180004000900041
:100dd000808f500021003a0031a180000000eb001c
:100de000e000980031a1800030a180002000900038
:100df0000000a200a000980031a180000000eb00dc
:100e0000b000980030a1800020009000e10f500059
:100e100007003a0030a180001000900080007800a8
:100e20000000240000805000801c8800060037006d
:100e300030a18000100078008000780000002400bd
:100e400000805000801c880030a1800031a180000b
:100e5000d10090004100980003003700801c800002
:100e60000080e800801c88008de3a8000080fa0064
:100e70004f00be00004006000400fa00000f78009a
:100e8000110798001e00780040a188001e0078001d
:100e90009e009000010878001e0090000008b0003d
:100ea000800078001e0078001100980081c3a9001e
:100eb00081a3a9008183a9008163a90001382000d2
:100ec00091407800f0ccb30000c0600080e3b70030
:100ed0000138200091407800c0cfb30000c060000e
:100ee0000014a00080e3b70083e3a90021382000ac
:100ef0009140780000c8b30000c06000d040b3004b
:100f000082e3b7001e0078001000780080007800af
:100f10000000240000805000201c88001e00780083
:100f20001000900080007800000024000080500035
:100f3000301c880000302000401c8800f007200092
:100f4000501c880040742000001988000000eb004d
:100f50001019880000012000201988000000eb0013
:100f6000401988002c03a9000000eb0080198800bc
:100f70000000eb00500888007038210070088800dd
:100f80000080fa00000006000200fa00000f78005e
:100f90009e0078000000eb00a00098009e00780002
:100fa00010002000b00098008480a9009480a80060
:100fb00081e3a80021e3a80013e1a8000080fa0063
:100fc000000006000200fa00000f78009480a900db
:100fd00081e3a90021e3a90013e1a9000080fa0040
:100fe000000006000c00fa00200798003107980066
:100ff000420798002e009000200090000000e000c2
:10100000040032002e009000100078005007980075
:10101000030037002e009000100090005007980049
:101020005e00900010079800ce009000000820009d
:10103000808f500002003400000820004007980014
:101040000000eb00000f78000d0037001e00780054
:1010500000004000800078003e00900000814000c9
:101060001e00780000004000800078001e00900004
:101070000080400010007800000978001e0fe80092
:101080004e0090009e0f1000f0ff35000400fc00a1
:10109000ae00900010002000b00098000000fc009e
:1010a0000080fa00000006000200fa00000f78003d
:1010b0001e007800300090000080fa00000006005a
:1010c000809fbe000000fa008480a90041a180003a
:1010d00040a18000200090000000a200a000980025
:1010e00041a180000000eb00b00098000080fa00f1
:1010f0004f00be00004006000000fa001ffd070080
:1011000010a18000016024005bff070020a1800087
:101110000140240080fe070010a180009aff070014
:1011200020a180009ffe07000000370010a1800072
:10113000ddff07000000e000fcff3a0010a1800086
:101140000220200001802000a6ff070003002100ec
:1011500002c02000018020000020200043fe070084
:1011600020a1800009ff07000000e000fcff3a001a
:1011700020a180000220200001002100affe070016
:04118000eaff37004b
:020000040000fa
:0200000401f009
:04000800ffff0000f6
:020000040000fa
:0200000401f009
:04000c00f8ff0000f9
:020000040000fa
:0200000401f009
:040010007bff000072
:020000040000fa
:0200000401f009
:040014007fff00006a
:020000040000fa
:10000800fc080000fc080000fc080000fc080000d8
:10001800fc080000fc080000fc080000fc080000c8
:10002800fc080000fc080000fc080000fc080000b8
:1000380060080000fc080000fc080000fc08000044
:10004800fc080000fc080000fc080000fc08000098
:10005800fc080000fc080000d2060000fc080000b4
:10006800fc080000fc080000fc080000fc08000078
:10007800fc080000fc080000fc080000fc08000068
:10008800fc080000fc080000fc080000fc08000058
:10009800fc080000fc080000fc080000fc08000048
:1000a800fc080000fc080000fc080000fc08000038
:1000b800fc080000fc080000fc080000fc08000028
:1000c800fc080000fc080000fc080000fc08000018
:1000d800fc080000fc080000fc080000fc08000008
:1000e800fc080000fc080000fc080000fc080000f8
:1000f800fc080000fc080000fc080000fc080000e8
:10010800fc080000fc080000fc080000fc080000d7
:10011800fc080000fc080000fc080000fc080000c7
:10012800fc080000fc080000fc080000fc080000b7
:10013800fc080000fc080000fc080000fc080000a7
:10014800fc080000fc080000fc080000fc08000097
:10015800fc080000fc080000fc080000fc08000087
:10016800fc080000fc080000fc080000fc08000077
:10017800fc080000fc080000fc080000fc08000067
:10018800fc080000fc080000fc080000fc08000057
:10019800fc080000fc080000fc080000fc08000047
:1001a800fc080000fc080000fc080000fc08000037
:1001b800fc080000fc080000fc080000fc08000027
:1001c800fc080000fc080000fc080000fc08000017
:1001d800fc080000fc080000fc080000fc08000007
:1001e800fc080000fc080000fc080000fc080000f7
:0801f800fc080000fc080000f7
:020000040000fa
:10020800fc080000fc080000fc080000fc080000d6
:10021800fc080000fc080000fc080000fc080000c6
:10022800fc080000fc080000fc080000fc080000b6
:1002380060080000fc080000fc080000fc08000042
:10024800fc080000fc080000fc080000fc08000096
:10025800fc080000fc080000d2060000fc080000b2
:10026800fc080000fc080000fc080000fc08000076
:10027800fc080000fc080000fc080000fc08000066
:10028800fc080000fc080000fc080000fc08000056
:10029800fc080000fc080000fc080000fc08000046
:1002a800fc080000fc080000fc080000fc08000036
:1002b800fc080000fc080000fc080000fc08000026
:1002c800fc080000fc080000fc080000fc08000016
:1002d800fc080000fc080000fc080000fc08000006
:1002e800fc080000fc080000fc080000fc080000f6
:1002f800fc080000fc080000fc080000fc080000e6
:10030800fc080000fc080000fc080000fc080000d5
:10031800fc080000fc080000fc080000fc080000c5
:10032800fc080000fc080000fc080000fc080000b5
:10033800fc080000fc080000fc080000fc080000a5
:10034800fc080000fc080000fc080000fc08000095
:10035800fc080000fc080000fc080000fc08000085
:10036800fc080000fc080000fc080000fc08000075
:10037800fc080000fc080000fc080000fc08000065
:10038800fc080000fc080000fc080000fc08000055
:10039800fc080000fc080000fc080000fc08000045
:1003a800fc080000fc080000fc080000fc08000035
:1003b800fc080000fc080000fc080000fc08000025
:1003c800fc080000fc080000fc080000fc08000015
:1003d800fc080000fc080000fc080000fc08000005
:1003e800fc080000fc080000fc080000fc080000f5
:0803f800fc080000fc080000f5
:020000040000fa
:08118400000000000100000062
:020000040000fa
:10118c001814000006000000000000001e140000ef
:10119c000400000000000000261400000200000003
:1011ac0000000000281400000200000000000000f5
:1011bc0022140000040000000200000002140a00c7
:1011cc0014000000004600000002000000000000b7
:1011dc0000440000000200000000000000080000b5
:0c11ec00180c00000000000000000000d3
:020000040000fa
:0411f8000000fe00f5
:00000001FF
