:020000040000fa
:080000000002040000000000f2
:020000040000fa
:100400002f442100803f24000001880000000000ec
:10041000050007000c000700dc09020000000000d6
:100420000040da000000fe004440a90080002000e7
:100430000000e0000300320000002000a00188005e
:100440004440a8000000060060c020000100200019
:100450001600370062004000e080480091018800eb
:100460009001ba0062004000e080480091018800dd
:100470009002ba0062004000e08048000002eb00f9
:100480006028e10005003a008301e900070033001d
:10049000038009000059eb00040037006128e100e7
:1004a000010032000082eb00050007009101880086
:1004b0001001ba000200e000e6ff3a00000005006b
:1004c000910188008002780062004000e0804800ce
:1004d0003559ba008301e900080032002559ba00f5
:1004e0008301e900050032000400e000f4ff32005f
:1004f00015d9ba008301e900f1ff3a0000000600b7
:10050000839f68000100e00002003d0060001000d1
:10051000e08018000300e00002003d0060011100cf
:10052000e0811900620007004f00e00002003b007c
:1005300060001000e080180000000600889fbe00e8
:100540008a9fbe008c1f780069000700700033008e
:1005500003866c006450e1002e0032006420e1004c
:10056000330032006150e1002f0032006120e100d1
:100570003100320085855500eb07b00009002000ee
:1005800008042000050037000804440089844c005a
:100590000a0031000603430087834b00000153002b
:1005a00081815b00f8ff33000203be000800a00059
:1005b0000804440089844c00f6ff3900c639dd0088
:1005c0008301730001003200130020008904d10070
:1005d0000884d3000998a300050032000800a70092
:1005e0000300a0008904d1000884d3008b05e80033
:1005f0008904d1000884d3000001eb000281d200fd
:100600005300070001f0a1000cf0a70001f0a000ca
:10061000480037006420e1004a0032000801be00b3
:100620000200be00f7ff37006120e1004500320004
:100630006000b800f3ff37000000200001f8270039
:10064000f0ff37000001be00670007000470a7003c
:1006500003f0a10003f8a30013003a006509b100fc
:1006600010003200090035006928e1000200350061
:1006700001002800000005000000400081804800c3
:100680008502e900fcff3a0000000600f88f4200f6
:10069000050035008100d1000080d3008502e8000c
:1006a000fcff3a00000006008000eb00000005009f
:1006b0006022b800060220000000d0008180d20035
:1006c0000482d2008582d2000000a0000202520003
:1006d00083825a00030031000202420083824a00f2
:1006e0000000a1000603e900f3ff3a000000060045
:1006f0000004be003c0007000003be000405be006d
:100700000200be0038000700844f7500000006009c
:100710000200be006450e100050036006420e100e4
:10072000020036000968a30001003a000800be007c
:100730000160a0004f0678004f05be004f04be00c8
:1007400000000600f0ff2f00f1ff2700f9ff37003f
:1007500081002000618055000b003d000b0020004f
:1007600061fe2f000100e1001d0034008281710054
:10077000610164008904d1000884d3000000e8000e
:10078000faff3a007100200061006400030070006d
:10079000020060000900320061044400e0844c0063
:1007a0000988a500050032008b05e8006808e10013
:1007b00002003a008904d1000884d300f20f20001f
:1007c0000258e10005003d00c75ddd00f907b200f9
:1007d0008980750008007800000006000bf82700eb
:1007e0008b00780000000500c70ade00f107b200a8
:1007f000f50fb20008003200e1cf420002003200e3
:100800000170a00024000500810f7000010032007b
:100810000408050044000500810f700002003a0042
:10082000140005008502e9000000400081c0480076
:10083000fcff3b000170a000240005000000fa004e
:1008400090022000303a880044c7bf00f043b20055
:1008500044e7b700417420009140780000ceb30017
:1008600000c0600044e7b7000000eb00403a880099
:100870001200200081072000a0092000337420000e
:100880008149780080497800824978001200200070
:100890006104200070052000237420008149780045
:1008a000804978008249780043c7bf000047b20002
:1008b000f04f5000fcff3a0042c7bf000042b200b8
:1008c0000004e000fcff3200db0007000080fa00bb
:1008d000000006000400fa00000f78001e007800f7
:1008e000100798001e009000e20f50001100320027
:1008f0001e009000e30f50001b0032001e0090000d
:10090000e10f500001003200230037001060840026
:1009100070a1880070a1800061406000c700dd0008
:10092000d1c2bf000074a10001407000d1e2b70045
:10093000190037001060840080a1880080a1800029
:1009400061406000614060004501dd00112d200024
:1009500091407800f0cdb30000c06000024070000c
:10096000d1e2b7000c0037001060840090a188002d
:1009700090a1800061406000614060004601dd00a0
:10098000112d200091407800f0cbb30000c0600032
:1009900002407000d1e2b7000080fa0000000600bb
:1009a0000400fa00000f78001e007800100798007d
:1009b0001e009000e20f5000110032001e00900057
:1009c000e30f50001b0032001e009000e10f5000aa
:1009d00001003200230037002060840070a18800ed
:1009e00070a1800061406000c700dd00d1c2bf007f
:1009f0000074a10001407000d1e2b7001900370077
:100a00002060840080a1880080a180006140600097
:100a1000614060004501dd00112d2000914078000b
:100a2000f0cdb30000c0600002407000d1e2b7001a
:100a30000c0037002060840090a1880090a1800005
:100a400061406000614060004601dd00112d200022
:100a500091407800f0cbb30000c06000024070000d
:100a6000d1e2b7000080fa00000006000400fa009e
:100a7000000f78001e007800100798001e009000fc
:100a8000e20f5000180032001e009000e30f5000eb
:100a9000290032001e009000e10f500001003200da
:100aa0003800370071a1800020608400808f5000e2
:100ab00003003a001060840070a188000200370033
:100ac0002060840070a1880070a1800061406000f7
:100ad000c700dd00d1c2bf000074a100014070005a
:100ae000d1e2b7002700370081a180002060840098
:100af000808f500003003a001060840080a18800bd
:100b0000020037002060840080a1880080a180005e
:100b100061406000614060004501dd00112d200052
:100b200091407800f0cdb30000c06000024070003a
:100b3000d1e2b7001300370091a18000206084004b
:100b4000808f500003003a001060840090a188005c
:100b5000020037002060840090a1880090a18000ee
:100b600061406000614060004601dd00112d200001
:100b700091407800f0cbb30000c0600002407000ec
:100b8000d1e2b7000080fa00000006000400fa007d
:100b9000000f78001e007800100798001e009000db
:100ba000e20f50000e0032001e009000e30f5000d4
:100bb000120032001e009000e10f500001003200d0
:100bc000150037001000200042ff07002000200021
:100bd00073ff07003000200071ff0700140037008a
:100be000100020006eff07002000200039ff0700e2
:100bf000300020006aff07000d00370010002000c1
:100c000067ff07002000200065ff0700300020007c
:100c100030ff0700060037001000200060ff0700cb
:100c2000200020005eff0700300020005cff07006e
:100c30000080fa00000006000000fa00cda2a90022
:100c4000cde2a900cdc2a900d1a2a800d1e2a8009e
:100c5000d1c2a800d302a800d322a800e402a900b0
:100c6000e422a900e802a900e822a9000000eb00a4
:100c7000d0a188000000eb00e0a188000080fa000d
:100c8000000006000200fa00d5c2bf00614060000b
:100c90000004e00009003a00d0a180000000e80054
:100ca000d0a18800d0a18000ec0f500007003a00ce
:100cb00010002000000f7800040037000000eb0057
:100cc000d0a188000000eb00000f78001e00780023
:100cd0000080fa00000006000200fa00d5c2bf0042
:100ce000624060000004e00009003a00e0a18000da
:100cf0000000e800e0a18800e0a18000ec0f5000b7
:100d000007003a0010002000000f780004003700b0
:100d10000000eb00e0a188000000eb00000f78006d
:100d20001e0078000080fa00000006000a00fa00a9
:100d30001007980021079800320798004307980091
:100d40000000eb00000f78001e0037001e00780046
:100d500000004000800078004e009000808140003c
:100d60001e00780000004000800078003e009000e7
:100d7000008240001e0078000000400080007800e3
:100d80003e00900000804000100078006300b90031
:100d9000000178001e00780000004000800078000c
:100da0002e009000008040001000780000004100fc
:100db0004280de00000a7800140078008009780084
:100dc0001e0fe8001e0090009e0f1000dfff350090
:100dd0000080fa00000006000400fa00000f78000e
:100de000110798001e007800f0a188001e0078000e
:100df0009e009000010878001e0090000110200065
:100e0000808040001e007800110098001001220030
:100e1000601c880070002000701c88001e00780094
:100e2000100078008000780000002400008050004e
:100e3000801c880000182000a01c88007000200082
:100e4000b01c88000000eb00800888000000eb0068
:100e5000300888000000eb00600888000080fa007d
:100e6000000006000200fa00000f78009e007800e3
:100e70000000eb00a00098009e0078000000eb004e
:100e8000e00098009e00780000082000c000980054
:100e90009e00780000082000d00098009e00780096
:100ea0000000eb00b000980085c0a90095c0a80024
:100eb0008de3a80000272000600888008013200030
:100ec000000c880080132000100c880060002000b7
:100ed000200c880011e1a8000080fa000000060044
:100ee0000200fa00000f780011e1a90095c0a900e6
:100ef0008de3a9000080fa00000006001000fa004f
:100f00004007980051079800620798004e00900033
:100f1000200090000000e000040032004e0090002d
:100f20001000780070079800030037004e00900012
:100f300010009000700798007e0090003007980025
:100f4000ee00900000082000808f50000200340066
:100f500000082000600798000000eb0020079800c0
:100f60002c0037002e009000000040008000780028
:100f70005e00900000804000900078000000280093
:100f800000804000100798001e0090006101b8002a
:100f9000002720000013b8006010b9000702780095
:100fa00000024200002720000098b9000002420021
:100fb00084037800f2ff2f00030020000600be002b
:100fc0004ffd0700000f7800002720009e0f100043
:100fd00002003600f0262000000f78001e00e0001e
:100fe00002003a0010002000000f78002e00900050
:100ff00000004000800078003e00900080804000ab
:101000001e007800800878002e0090000000e800a4
:1010100020079800ae0090006e009000808f500076
:10102000d0ff35004e009000ee0090005100980077
:101030000400fc00ce00900010002000b0009800da
:101040000000fc000080fa00000006000200fa0028
:10105000000f78001e007800300090000080fa0039
:1010600000000600809fbe000000fa0085c0a900b5
:10107000f1a18000610090000000e800e00098000d
:10108000f0a18000e0009000f0a1800040009000fe
:10109000808f500021003a00f1a180000000eb0099
:1010a000e0009800f1a18000f0a1800020009000f5
:1010b0000000a200a0009800f1a180000000eb0059
:1010c000b0009800f0a1800020009000e10f5000d7
:1010d00007003a00f0a18000100090008000780026
:1010e0000000240000805000801c880006003700ab
:1010f000f0a180001000780080007800000024003b
:1011000000805000801c8800f0a18000f1a18000c8
:10111000d10090004100980003003700801c80003f
:101120000080e800801c88008de3a8000080fa00a1
:101130004f00be00004006000400fa00000f7800d7
:10114000110798001e00780000a288001e00780099
:101150009e009000010878001e0090000008b0007a
:10116000800078001e0078001100980081c3a9005b
:1011700081a3a9008183a9008163a900013820000f
:1011800091407800f0ccb30000c0600080e3b7006d
:101190000138200091407800c0cfb30000c060004b
:1011a0000014a00080e3b70083e3a90021382000e9
:1011b0009140780000c8b30000c06000d040b30088
:1011c00082e3b7001e0078001000780080007800ed
:1011d0000000240000805000201c88001e007800c1
:1011e0001000900080007800000024000080500073
:1011f000301c880000302000401c8800f0072000d0
:10120000501c880040742000001988000000eb008a
:101210001019880000012000201988000000eb0050
:10122000401988002c03a9000000eb0080198800f9
:101230000000eb005008880070382100700888001a
:101240000080fa00000006000200fa00000f78009b
:101250009e0078000000eb00a00098009e0078003f
:1012600010002000b00098008480a9009480a8009d
:1012700081e3a80021e3a80013e1a8000080fa00a0
:10128000000006000200fa00000f78009480a90018
:1012900081e3a90021e3a90013e1a9000080fa007d
:1012a000000006000c00fa002007980031079800a3
:1012b000420798002e009000200090000000e000ff
:1012c000040032002e0090001000780050079800b3
:1012d000030037002e009000100090005007980087
:1012e0005e00900010079800ce00900000082000db
:1012f000808f500002003400000820004007980052
:101300000000eb00000f78000d0037001e00780091
:1013100000004000800078003e0090000081400006
:101320001e00780000004000800078001e00900041
:101330000080400010007800000978001e0fe800cf
:101340004e0090009e0f1000f0ff35000400fc00de
:10135000ae00900010002000b00098000000fc00db
:101360000080fa00000006000200fa00000f78007a
:101370001e007800300090000080fa000000060097
:10138000809fbe000000fa008480a90001a28000b6
:1013900000a28000200090000000a200a0009800a1
:1013a00001a280000000eb00b00098000080fa006d
:1013b0004f00be00004006000000fa001ffd0700bd
:1013c000b0a18000016024005bff0700c0a1800085
:1013d0000140240080fe0700b0a180009aff0700b2
:1013e000c0a180009ffe070000003700a0a1800080
:1013f0000000e00008003a000000eb0030000700a9
:10140000a0a188000001eb008000eb000000eb00d1
:1014100043000700f5ff3700a0a18000e10f500056
:1014200020003a00b0a18000cfff07000000e000dc
:10143000fcff3a00b0a180000220200001802000c3
:1014400098ff07000300210002c020000180200057
:101450000020200035fe0700c0a18000fbfe070031
:101460000000e000fcff3a00c0a180000220200044
:1014700001002100a1fe0700d5c2bf00624060004c
:101480000004e000d9ff3a00d5c2bf00614060000f
:101490000004e000d5ff320020002000a0a1880059
:1014a000d2ff3700a0a18000e20f5000cfff3a002a
:1014b0002000200002000700a0a18800cbff370019
:1014c0000400fa00000f78001e0078001007980052
:1014d0001e0090000000e000040032001e0090009a
:1014e000e10f500005003200070037000000eb005c
:1014f000c0a088002a000700060037001000200066
:10150000c0a088000300370020002000c0a0880091
:1015100065000700c0a080000080fa0000000600ff
:101520000600fa00000f78001107980022079800c3
:10153000100020009e0f100002003a00d1e2a90026
:10154000030037001e00e00001003a00d1e2a800cd
:101550001e009000e10f500002003a00d1a2a90045
:10156000040037001e0090000000e00001003a0077
:10157000d1a2a8002e009000e10f500002003a0016
:10158000d1c2a900040037002e0090000000e00046
:1015900001003a00d1c2a8000080fa000000060055
:1015a0000400fa000068290081c12400d0a088004e
:1015b000e1a08800d2a08000e3a08000000020000d
:1015c00001f82300ddfb0700f0a0880001a18800de
:1015d000f0a0800001a18000670007000000eb0080
:1015e000000f78002b003700d5c2bf0061406000bb
:1015f0000004e00007003a00d5c2bf00624060006e
:101600000004e0000300320010002000c0a08800a9
:10161000200037001e007800100798001e00900080
:10162000e10f50000c0032001e009000e20f50004d
:101630000e0032001e0090000000e00001003200a9
:1016400010003700d1e2a900d1a2a800d1c2a800a1
:101650001e0fe8000c003700d1e2a800d1a2a900bb
:10166000d1c2a8001e0fe80007003700d1e2a80091
:10167000d1a2a800d1c2a9000000eb00000f7800a1
:101680000100370008000700a099290091e9230014
:1016900040000700c0a080000000e000d2ff320040
:1016a0000080fa00000006000200fa00006829002d
:1016b00081c12400d0a08800e1a08800d2a08000d1
:1016c000e3a080000000200001f823009bfb07003e
:1016d000f0a0880001a18800f0a0800001a1800096
:1016e000250007000000eb00000f7800d5c2bf0006
:1016f000614060000004e00009003a00d5c2bf006c
:10170000624060000004e00005003a000000eb00c9
:10171000000f78000000eb00c0a088001400370024
:101720001e00e00006003a00d1e2a900d1a2a90003
:10173000d1c2a90010002000000f78000800370077
:10174000100020009e0f100005003a00d1e2a80012
:10175000d1a2a800d1c2a8000000eb00000f7800c1
:10176000a099290091e923000a000700dfff370054
:101770000080fa00000006000400fa00008fbe009e
:101780001e00be0030a1880041a188000080fa0040
:10179000000006000400fa00008fbe0032a18000a5
:1017a00043a180001e00be0064fb0700a5fb0700ec
:1017b00050a1880061a1880050a1800061a1800033
:1017c000020007000080fa0000000600f03fb100b0
:1017d0000180b10006003500ee03090000000000a2
:1017e000403fb1000180b100fbff3d001000b000a0
:1017f000203fb0000200350000800900000000001a
:0418000000000600de
:020000040000fa
:0200000401f009
:04000800ffff0000f6
:020000040000fa
:0200000401f009
:04000c00f8ff0000f9
:020000040000fa
:0200000401f009
:040010007bff000072
:020000040000fa
:0200000401f009
:040014007fff00006a
:020000040000fa
:10000800480c0000480c0000480c0000480c000098
:10001800480c0000480c0000480c0000480c000088
:10002800480c0000480c0000480c0000480c000078
:10003800c0090000480c0000480c0000480c0000f3
:10004800480c0000480c0000480c0000480c000058
:10005800480c0000480c000032080000480c000062
:10006800480c0000480c0000480c0000480c000038
:10007800480c0000480c0000480c0000480c000028
:10008800480c0000480c0000480c0000480c000018
:10009800480c0000480c0000480c0000480c000008
:1000a800480c0000480c0000480c0000480c0000f8
:1000b800480c0000480c0000480c0000480c0000e8
:1000c800480c0000480c0000480c0000480c0000d8
:1000d800480c0000480c0000480c0000480c0000c8
:1000e800480c0000480c0000480c0000480c0000b8
:1000f800480c0000480c0000480c0000480c0000a8
:10010800480c0000480c0000480c0000480c000097
:10011800480c0000480c0000480c0000480c000087
:10012800480c0000480c0000480c0000480c000077
:10013800480c0000480c0000480c0000480c000067
:10014800480c0000480c0000480c0000480c000057
:10015800480c0000480c0000480c0000480c000047
:10016800480c0000480c0000480c0000480c000037
:10017800480c0000480c0000480c0000480c000027
:10018800480c0000480c0000480c0000480c000017
:10019800480c0000480c0000480c0000480c000007
:1001a800480c0000480c0000480c0000480c0000f7
:1001b800480c0000480c0000480c0000480c0000e7
:1001c800480c0000480c0000480c0000480c0000d7
:1001d800480c0000480c0000480c0000480c0000c7
:1001e800480c0000480c0000480c0000480c0000b7
:0801f800480c0000480c000057
:020000040000fa
:10020800480c0000480c0000480c0000480c000096
:10021800480c0000480c0000480c0000480c000086
:10022800480c0000480c0000480c0000480c000076
:10023800c0090000480c0000480c0000480c0000f1
:10024800480c0000480c0000480c0000480c000056
:10025800480c0000480c000032080000480c000060
:10026800480c0000480c0000480c0000480c000036
:10027800480c0000480c0000480c0000480c000026
:10028800480c0000480c0000480c0000480c000016
:10029800480c0000480c0000480c0000480c000006
:1002a800480c0000480c0000480c0000480c0000f6
:1002b800480c0000480c0000480c0000480c0000e6
:1002c800480c0000480c0000480c0000480c0000d6
:1002d800480c0000480c0000480c0000480c0000c6
:1002e800480c0000480c0000480c0000480c0000b6
:1002f800480c0000480c0000480c0000480c0000a6
:10030800480c0000480c0000480c0000480c000095
:10031800480c0000480c0000480c0000480c000085
:10032800480c0000480c0000480c0000480c000075
:10033800480c0000480c0000480c0000480c000065
:10034800480c0000480c0000480c0000480c000055
:10035800480c0000480c0000480c0000480c000045
:10036800480c0000480c0000480c0000480c000035
:10037800480c0000480c0000480c0000480c000025
:10038800480c0000480c0000480c0000480c000015
:10039800480c0000480c0000480c0000480c000005
:1003a800480c0000480c0000480c0000480c0000f5
:1003b800480c0000480c0000480c0000480c0000e5
:1003c800480c0000480c0000480c0000480c0000d5
:1003d800480c0000480c0000480c0000480c0000c5
:1003e800480c0000480c0000480c0000480c0000b5
:0803f800480c0000480c000055
:020000040000fa
:081804000000000001000000db
:020000040000fa
:10180c002e14000006000000000000003a14000036
:10181c0004000000000000003e1400000200000064
:10182c000000000040140000020000000000000056
:10183c00341400000600000002000000000002004a
:10184c00140a140000460000000200000000000012
:10185c00004400000002000000000000000800002e
:10186c00180c000000000000181400000e0000000e
:10187c00000000002614000008000000000000001a
:04188c000000000058
:020000040000fa
:041890000000fe0056
:00000001FF
